:020000040800F2
:1000000000000320BD050008AD240008AF2400084F
:10001000B1240008B3240008B52400080000000043
:10002000000000000000000000000000118B00082C
:10003000B724000800000000A18B00088983000895
:100040000D0600080D0600080D0600080D06000844
:100050000D0600080D0600080D0600080D06000834
:100060000D0600080D0600080D0600080D06000824
:100070000D0600080D0600080D0600080D06000814
:100080000D0600080D0600080D0600080D06000804
:100090000D0600080D0600080D0600080D060008F4
:1000A0000D0600080D0600080D0600080D060008E4
:1000B0000D0600080D0600080D0600080D060008D4
:1000C0000D0600080D0600080D0600080D060008C4
:1000D0000D0600080D0600080D0600080D060008B4
:1000E0000D0600080D0600080D0600080D060008A4
:1000F0000D0600080D0600080D0600080D06000894
:100100000D0600080D0600080D0600080D06000883
:100110000D0600080D060008B92400080D060008A9
:100120000D0600080D0600080D0600080D06000863
:100130000D0600080D0600080D0600080D06000853
:100140000D0600080D0600080D0600080D06000843
:100150000D0600080D0600080D0600080D06000833
:100160000D0600080D0600080D0600080D06000823
:100170000D0600080D0600080D060008000000002E
:100180000D0600080D0600080D0600080D06000803
:100190000D0600080D0600080D0600080D060008F3
:0C01A000C52400080D060008D12400084A
:1001B00010B5054C237833B9044B13B10448AFF3A1
:1001C00000800123237010BD800300200000000088
:1001D0001054020808B5034B1BB103490348AFF3A1
:1001E000008008BD000000008403002010540208B5
:1001F00001F0FF01102A2BDB10F0070F08D010F8D8
:10020000013B013A8B422DD010F0070F42B3F6D1DB
:10021000F0B441EA012141EA014122F007047FF0F4
:1002200000070023F0E80256083C85EA010586EA4B
:10023000010685FA47F5A3FA87F586FA47F6A5FA87
:1002400087F68EB9EED1F0BC01F0FF0102F0070293
:1002500032B110F8013B013A83EA010313B1F8D13E
:100260000020704701387047002D06BF354603381F
:10027000073815F0010F07D1013015F4807F02BF58
:10028000013015F4C03F0130F0BC0138704700BFA9
:1002900053B94AB9002908BF00281CBF4FF0FF31ED
:1002A0004FF0FF3000F088B9ADF1080C6DE904CED5
:1002B00000F006F8DDF804E0DDE9022304B0704741
:1002C0002DE9F047089D8E4604468846002B4AD10A
:1002D0008A42174662D9B2FA82F64EB1C6F12003BD
:1002E00001FA06F820FA03F3B74043EA0808B440DD
:1002F0004FEA174E1FFA87FCB8FBFEF1230C0EFBEA
:10030000118843EA084301FB0CF29A4209D9FB1811
:1003100001F1FF3080F0EA809A4240F2E780023932
:100320003B449A1AA3B2B2FBFEF00EFB102243EA42
:10033000024300FB0CFC9C4509D9FB1800F1FF327D
:1003400080F0D6809C4540F2D3803B44023840EA9E
:100350000140A3EB0C0300211DB1F3400022C5E9CD
:100360000032BDE8F0878B4205D90DB1C5E9000127
:1003700000210846F5E7B3FA83F1002946D1734519
:1003800002D3824200F20581841A6EEB030201203F
:100390009046002DE5D0C5E90048E2E7002A00F0CC
:1003A0009080B2FA82F6002E40F0A4808A1A030CE4
:1003B0004FEA174E80B2BCB20121B2FBFEFC0EFB2D
:1003C0001C2243EA024304FB0CF29A4207D9FB18B1
:1003D0000CF1FF3802D29A4200F2E080C4469B1A28
:1003E000B3FBFEF20EFB123340EA034302FB04F4BC
:1003F0009C4207D9FB1802F1FF3002D29C4200F266
:10040000CA8002461B1B42EA0C40A5E7C1F1200648
:100410008B4022FA06F71F430EFA01F420FA06F386
:100420002EFA06FE4FEA1749234300FA01F81FFA95
:1004300087FCBEFBF9F01C0C09FB10EE44EA0E44ED
:1004400000FB0CFEA64502FA01F209D93C1900F1A5
:10045000FF3A80F09C80A64540F2998002383C44E7
:10046000A4EB0E041FFA83FEB4FBF9F309FB13445B
:100470004EEA044403FB0CFCA44508D93C1903F1E3
:10048000FF3E80F08280A4457FD9023B3C4443EA92
:100490000040A4EB0C04A0FB02EC64457346E1466B
:1004A00062D35FD05DB1B8EB030264EB090404FAD8
:1004B00006F622FA01F31E43CC40C5E90064002190
:1004C0004FE7B1FBF2FC010C41EA0E4180B240EA79
:1004D00001423B4638463C46B846BE462026B1FB64
:1004E000F7F1A2EB080241EA0C4166E7014618E782
:1004F00010462CE7C6F120022EFA02F3B740B140B5
:1005000020FA02F24FEA174E0A43B3FBFEF8BCB2E0
:100510000EFB1833110C41EA034108FB04F9B0400B
:1005200089454FEA104380B23ED9791808F1FF3C63
:1005300001D289451FD8A1EB0901B1FBFEF909FBE6
:1005400004F80EFB191192B242EA0142424529D247
:10055000BA1809F1FF31C4D24245C2D2A9F1020151
:100560003A44BEE7F0459DD2BEEB02036CEB070CAC
:100570000138E14696E7A7EB09094944A8F1020CC6
:10058000B1FBFEF909FB04F8DBE773467FE7504651
:1005900066E70846FDE63B44023A33E7ACF1020C5D
:1005A0003B441CE749469CE7A1EB0901C446B1FB6B
:1005B000FEF909FB04F8C4E7704700BFDFF834D048
:1005C000002103E00C4B5B58435004310B480C4BAB
:1005D00042189A42F6D30B4A02E0002342F8043B49
:1005E000094B9A42F9D305F02FF824F057F901F09E
:1005F000FBF870470000032024AB13080000002024
:1006000080010020800300201C480120FEE7704785
:1006100008B500F0D5FDBDE8084000F059BD00F078
:10062000D1BD704710B50421044622F09AFF204640
:1006300010BD000038B50C4B0C4C18800C4B8220C0
:1006400019806368984740F6110398420AD1094D12
:1006500023682C60822098472B688220DB689847AB
:10066000002038BD0120FCE7A60300206C0000201C
:10067000A4030020A80300204FF4A071F020FFF78E
:10068000D9BF0000F7B5394D2B6804461B6982209D
:100690009847208000284ED02B680DF106025B6938
:1006A00001A982209847324B1B78002B4BD0BDF814
:1006B000062040F674639A423FD9ADF80630BDF883
:1006C00006209B1A9BB20A2B42D90B22B3FBF2F3F2
:1006D000284A1288934201D9013A93B2BDF8042006
:1006E000254840F6B8318A4234D8C2F571620E32DC
:1006F000016892B20F25B2FBF5F2204D2D88AA4277
:1007000084BF05F1FF35AAB28A4215468EB22AD9B6
:10071000921B91B21A4E3768BB42BAB28CBF9A1A7A
:10072000D21A92B211440529C4BF05603360036830
:1007300063803368A38003B0F0BDB32A9CBFB422AA
:10074000ADF80620BBE7BDF80630A3F5B473B9E7F2
:100750000023C3E7C2F56D62083292B20E2A016827
:10076000C8D800252A46891A89B2D3E7A8030020F1
:1007700078230020A4030020A0030020A60300206B
:100780009C03002037B568460D461446FFF77AFFF4
:10079000BDF8000030B1BDF802302B60BDF8043068
:1007A0002360012003B030BD032821D8DFE800F02A
:1007B000020B12190F4B1A68B2FA82F25209042185
:1007C0000D4805F0CFBD0B4B5A68B2FA82F25209C0
:1007D0000821F5E7074B9A68B2FA82F25209102114
:1007E000EEE7044BDA68B2FA82F252092021E7E719
:1007F000704700BFAC03002000100240032821D83E
:10080000DFE800F0020B12190F4B1A68003A18BF0C
:10081000012204210D4805F0A5BD0B4B5A68003A92
:1008200018BF01220821F5E7074B9A68003A18BF64
:1008300001221021EEE7044BDA68003A18BF0122CA
:100840002021E7E7704700BFAC0300200010024002
:1008500003280DD8DFE800F00206080A0421054845
:1008600005F085BD0821FAE71021F8E72021F6E719
:10087000704700BF0010024008B5032811D8DFE818
:1008800000F0020A0C0E0421074805F065FD431E26
:100890005842584108BD0821F6E71021F4E720210D
:1008A000F2E70020F3E700BF0010024070B5084DEA
:1008B00000240126E0B2FFF7DFFF18B12B68012BFF
:1008C00018BF2E600134052C05F10405F2D170BD6E
:1008D000AC030020012380F87C1080F87D30704745
:1008E0007047002070470000034B8164003918BF37
:1008F00001211970704700BFD73A012070470020CE
:100900007047C36B0BB10846184770474FF6FF702E
:100910007047406803689B69184770477047704785
:100920007047704710B5044600F064FD2368034922
:10093000D3F890302046BDE810401847000000D0A2
:1009400008B503680446D3F88430984723682046E6
:10095000DB6F984700F008F9236820465B6F9847E3
:10096000292001F05BFA00F0FFF8236820465B6F56
:100970009847F8E710B504460BF00CF823682046BA
:10098000D3F8BC30BDE81040184700F017BD00F0A8
:100990001BBD00F04DBD00F0EDBC00F05DBD00F0F2
:1009A00065BD00F0F1BC0AF0E8B910B58821044635
:1009B00022F0D7FD204610BD10B590F8381090F801
:1009C0007C400C4B8C421A7809D03AB90A4A0B4940
:1009D0001488088810800C8001221A7010BD002A2B
:1009E000FCD0054A05491488088810800C80002234
:1009F000F3E700BFD63A0120E03A0120DE3A0120B9
:100A000008B5094B1B888B4203D8084B1B889342BF
:100A100005D9074B074A0848A52123F0C1FC074B1D
:100A20001980074B1A8008BDE03A0120DE3A012008
:100A300080540208E354020826550208DC3A0120DB
:100A4000DA3A01202DE9F0410D460446194635B940
:100A5000154B164A164840F2013123F0A1FCC0E9BB
:100A600010520368134ED3F89030003A18BF012299
:100A700032709847E569A5B12B681F68337873B168
:100A8000236820465B6B9847236C834207D1616CD7
:100A9000094B28461A883B46BDE8F0411847216CAF
:100AA000F6E7BDE8F08100BF6B550208A3550208C8
:100AB00026550208D83A0120DC3A0120034690F876
:100AC0007E0018B1586803681B681847704700001B
:100AD000012108B50022084607F016FD0A4B1860F0
:100AE00028B90A4B0A4A28210A4823F059FC002257
:100AF0000421012007F0B0FD074B186018B9074B1F
:100B0000034A2C21F0E708BDC0030020F15502087C
:100B10003A56020869560208BC030020A85602088B
:100B2000024B4FF0FF31186807F038BDC0030020BA
:100B3000014B186807F05EBDC0030020024B002186
:100B4000186807F02BBD00BFC0030020FFF7F0BFFF
:100B500003480449006800231A4607F0B8BD00BFE7
:100B6000BC0300200400002013B5084C00231A46E3
:100B700001A9206807F0DCFD20684FF0FF33002258
:100B800001A907F0D5FD02B010BD00BFBC030020D5
:100B900003685B6C18470120704703689B6A18471D
:100BA000FEE740F2EF307047054B0360054B4FF016
:100BB0008062C3F88820BFF34F8FBFF36F8F7047F9
:100BC0000062020800E100E010B504464FF45A61EB
:100BD000FFF7EAFF204622F0C4FC204610BD0000CB
:100BE00082B0002301930E4B1A6B42F400021A6389
:100BF0001A6B02F400020192019A1A6942F400028F
:100C00001A611A6922F400021A61064B064A1A6137
:100C1000064A5A61064B4FF080629A6002B07047F4
:100C2000003802401C250020810E0008A10B00089E
:100C300000E100E008B50A2809D8DFE800F0061056
:100C40000E080808081010101000022008BD054BFF
:100C5000054A0648902123F0A3FB0020F6E7012077
:100C6000F4E700BFEA560208055702085057020889
:100C700038B50C46887FFFF7DDFFA58AE28A164B60
:100C80002169586342EA05425A64628BD963521B58
:100C90001A642568082D0ED19A611A615862207F66
:100CA0000E4A42EA0062DA61E2681A620C4A59614D
:100CB000D9601A6038BD0022D8611A61E1680A0A59
:100CC000480902F4784200F4FC600243C1F3C40115
:100CD0000A439A63034AECE700B0024009000100AE
:100CE000012302000123030008B50B280BD8DFE81D
:100CF00000F00612100A0A0A0A080808080802206A
:100D000008BD0520FCE7054B054A06486F2123F086
:100D100047FB0020F4E70120F2E700BFEA56020893
:100D20008D570208505702082DE9F04191F81D80B7
:100D30000C464046FFF7D8FFA77F05463846FFF729
:100D4000D3FF06463846FFF775FFA18A628B444BF6
:100D5000521A1A649A61228B521A1A61E28A5863F3
:100D600042EA01425A6421696268D963DA60206804
:100D7000802828D0227F0FD8202867D0402865D02F
:100D800004281AD0364B45EA026545F40035B845CB
:100D9000DD6161D0334A44E0B0F5807F04D0B0F526
:100DA000007FEFD1304800E0304840EA0262DA616B
:100DB000E2681A625E62596132E045EA026242F418
:100DC0000032DA61F6E7A068021DDA62227F45EAA6
:100DD000026545F40035DD615E625961017841B11B
:100DE000012921D0224B234A23484FF48D7123F04F
:100DF000D7FADA69418822F47F42013922F01002E1
:100E000042EA0122DA610121154BDA6942F020023F
:100E1000DA61DA699206FCD410229A600029B9D00E
:100E2000164A1A60BDE8F081B2F1FF01DA69408824
:100E300022F47F4200F1FF3022F0100242EA002249
:100E400042F0100218BF0121DA61DDE745EA0262D3
:100E5000034B42F40032B4E742F20132E1E700BF53
:100E600000B0024001230100090002000A00020054
:100E7000D7570208F1570208505702080123020011
:100E8000024B1B68586803685B691847E43A012005
:100E900070B5044625460A4B0C3000266060267269
:100EA000667245F8203B602229460AF0DDFE04F513
:100EB0005A63EE6024359D42FBD1204670BD00BFD1
:100EC00000620208034B1A68D207FCD423229A60FE
:100ED000704700BF00B002407047000030B50F4CB3
:100EE0002568ED07FCD423250904A56041F0010124
:100EF0000225FF2B65636164E0630AD008496562DF
:100F000041EA0363E361074B22626061E0602360B2
:100F100030BDE561039BA363034BF8E700B00240DB
:100F200009000100010002000100030030B50E4C71
:100F30002568ED07FCD423251204A56042F00102C8
:100F40000225FF2B65636264E063E16008D01B0645
:100F500043F00213E361054B65626061236030BDBD
:100F6000034BE3610123F9E700B0024001000200F6
:100F7000020002FF30B50B4C2568ED07FCD4232599
:100F800012041B06A56043F40033022542F001025F
:100F900065636264E063E160E361034B6562606125
:100FA000236030BD00B00240010002000120704704
:100FB0004020704700EB81100830704700EB811033
:100FC000083070470120704740F62460704740F6B3
:100FD000246303FB01000830704740F6246303FBE1
:100FE000010008307047012070471020704700EB67
:100FF00001100830704700EB0110083070470846B8
:1010000001F0A2BD10B5034B0360044609F007FCD4
:10101000204610BDB862020810B50446FFF7F2FF83
:101020002046482122F09DFA204610BD10B5034B02
:101030000360044609F0F3FB204610BD84620208F9
:1010400010B50446FFF7F2FF204640F62C6122F06F
:1010500088FA204610BD000010B5034B036004461B
:1010600009F0DDFB204610BD5062020810B50446B1
:10107000FFF7F2FF2046182122F073FA204610BD38
:1010800010B5084B0360044600F65860FFF7BAFF3E
:1010900004F12C00FFF7CAFF04F11400FFF7DCFF96
:1010A000204610BDEC62020808B50248FFF7E8FFD1
:1010B00008BD00BFA012002010B50446FFF7E0FFF6
:1010C00020464FF4805122F04CFA204610BD00001B
:1010D0002DE9F34101F070FA054601F071FA0024A0
:1010E0000146234628462246009413F0D7F9274BA1
:1010F000274A1A60204602F05DFB264D264B274A00
:1011000027489A6013F030F92B68BFF35B8FDB0739
:1011100035D4284622F027FA88B3224C224B23608C
:1011200004F6A46604F1140004F12C0804F65867D0
:101130006060C4F80880E760266109F071FB1B4B12
:101140006361404609F06CFB194BE362384609F0D5
:1011500067FB184BC4F8583E04F56A6003F004FAC4
:10116000224604F56A61304602F09EFB304601F0EB
:10117000EBFC114823F032F9284622F000FA0F4820
:1011800002B0BDE8F041FFF7CDBB00BF403B0120FE
:101190004C0400209C1200206C040020500400200D
:1011A00008000020A0120020EC6202085062020831
:1011B00084620208B8620208A9100008C403002073
:1011C000704700000148FFF7BBBB00BFC40300200D
:1011D00070B5274E274C284D284B23603046FFF72B
:1011E00057FE284618F0DEFB254810F0EFFE254B91
:1011F0002548DC6000224FF48071C3E913122349B3
:101200001A63C3E91B1222499A86C3E91F012149C7
:10121000C3F884102049214883F85C20C3E90422E4
:10122000C3E90622C3E90822C3E90A22C3E90F225F
:10123000C3E91122C3E91522C3E918229A6683F88B
:1012400074209A67C3E901650B60F021018014489E
:10125000018014484FF4A0710180134801801349A4
:101260000A70012283F83820114A1A6070BD00BF4D
:10127000F8040020981200206C040020705402082A
:1012800050040020C40300200000010101000001FF
:10129000000450001A001400E43A0120E03A012052
:1012A000DC3A0120DE3A0120DA3A0120D63A012068
:1012B000146102080148FFF777BC00BFF804002062
:1012C0000020704781807047C1807047018170475E
:1012D000418170477047704770477047704710B43E
:1012E000C4880368121B84885B6D091B12B25DF809
:1012F000044B09B218474FF6FF7383814FF0FF3359
:1013000003621368C36110607047002070478B88C8
:10131000838001207047704780F82610704790F84E
:101320002600704710B50022B1F90840B1F90A1043
:10133000028042808480C18010BD002202804280F1
:101340008280C28070470177704780ED080A70473D
:1013500080F82410704780F82510704701207047EE
:10136000983070478C3070478430704770477047B2
:1013700070470000034B902283F85A2383F85823C8
:10138000704700BF00E100E0094A0A49D3680A48F3
:10139000C3F30A03013B9BB20B801169C1F30A013D
:1013A000013901801364536B43F0010353637047A9
:1013B00000680140A2220020A0220020014BD3F8A7
:1013C000AC00704700680140024B0122C3F8AC102A
:1013D0005A6270470068014010B52C21044622F083
:1013E000C0F8204610BD10B5BC21044622F0B9F863
:1013F000204610BD70B5044609F015FD23689D6EAA
:101400000FF07AFB01462046A8472368054AD3F827
:101410008C502046AC460023BDE87040A2F5163142
:10142000604700BF00B004D009F0E4BC09F0EEBC96
:1014300009F0A9BC09F015BE90F8252012B1036887
:101440005B691847704790F825201AB190F824205E
:1014500002B1186070470000034B4FF080629A6041
:101460004FF080729A60704700E100E0084B4FF047
:101470008062C3F88820BFF34F8FBFF36F8F4FF0A8
:101480008072C3F88820BFF34F8FBFF36F8F704710
:1014900000E100E070B50023124E8380124B036020
:1014A000336893F85C2005460AB1186D00B9986856
:1014B00003681B6B98473368B0FA80F4186D6409B1
:1014C00030B103681B6B9847002808BF44F0010443
:1014D0002CB9064B064A07482C2122F061FF28460A
:1014E00070BD00BFE43A0120006302082F580208D3
:1014F0008D580208C658020870B5254E3568BFF3EE
:101500005B8F15F0010540D1304622F02CF8002801
:101510003BD0204C204B256104F13400C4E9003558
:10152000C4E90255E584A562A58511F036F804F1F9
:1015300058000CF057F8194BA3652046184B40F89B
:10154000843BFFF7A7FF174BC4F884302433C4F85B
:101550008C304FF4C803C4E928350023C4F8AC30FC
:10156000C4F8B030C4F8B430C4F8B8300E480F4BEB
:10157000C4F89050C4F89C50C4F8A850C4F89830EF
:1015800022F02CFF304621F0FAFF024870BD00BF68
:10159000A4220020A8220020C46B020820630208B5
:1015A00098630208786B020871130008586B0208F0
:1015B00038B5184C23685BB3174B184A1B6C11885D
:1015C0008B4216D1164B198805F0B6FC236893F8A8
:1015D0006E200025013283F86E2083F88050FFF7DB
:1015E000B7FA20680AF0D6F92846BDE83840FFF778
:1015F000DBB805F0A1FC2468236820461B6A9847E5
:10160000012384F880300020BDE83840FFF7F6B8A9
:1016100038BD00BFE43A012000680140A22200204A
:10162000A022002007B5064BADF806001B68054850
:1016300001220DF1060106F06BFA03B05DF804FB20
:101640000C000020B823002038B5084C204604F0D8
:10165000EFF80A21204604F084F9204604F0D4F97A
:101660000546204604F062F9284638BDAC25002026
:1016700038B5084C204604F0DBF80A21204604F077
:1016800070F9204604F0C0F90546204604F04EF9F2
:10169000284638BD642500202DE9F341DFF8A880F5
:1016A000264E274FFFF7D0FF0546FFF7E1FF2946FB
:1016B00002460446404623F037F8322D1AD9522309
:1016C0008DF80730306800231A460DF1070106F047
:1016D000FEFF642C1AD91B4855238DF8073000688B
:1016E00000231A460DF1070106F0F1FF642006F011
:1016F000E8FED7E7072D94BF4C234E238DF8073023
:10170000002330681A460DF10701E0E7072C08D8DE
:1017100044238DF80730002338681A460DF107017D
:10172000E2E74E2307488DF8073000231A460DF1F3
:101730000701006806F0CBFFEDE700BF742300202F
:101740006C230020702300202859020830B595B082
:10175000102200210AA823F03CF81422002103A83B
:1017600023F037F800241E4B01941A6C42F080528B
:101770001A641B6C03F080530193019B194B029474
:101780001A6842F440421A601B6803F44043029313
:101790000122029B4FF48033CDE9082302254FF448
:1017A00080030821CDE90E534FF4B473CDE9101333
:1017B00008A804231393129505F016FC05F0DAFB34
:1017C0000F23CDE903354FF4A0504FF48053CDE9FA
:1017D0000603052103A8059405F0E2FD15B030BD10
:1017E00000380240007000402DE980489BB003F0B3
:1017F00039FFFFF7ABFF142200210DA822F0E9FF0B
:101800000024C94B00941A6BC84842F010021A63B6
:101810001A6B02F010020092009A01941A6B42F0C7
:1018200020021A631A6B02F020020192019A0294BC
:101830001A6B42F080021A631A6B02F08002029265
:10184000029A03941A6B42F004021A631A6B02F0B4
:1018500004020392039A04941A6B42F001021A6381
:101860001A6B02F001020492049A05941A6B42F07A
:1018700002021A631A6B02F002020592059A06949C
:101880001A6B42F040021A631A6B02F04002069291
:10189000069A07941A6B42F008021A631B6B03F056
:1018A0000803224607933C21079B04F05BFDA048F8
:1018B0000122022104F056FD22469D48042104F035
:1018C00051FD22469B484FF4405104F04BFD224607
:1018D00099484FF4005104F045FD01263C230325AF
:1018E00092480F940DA90227CDE90D36109504F00A
:1018F0004FFC8F480DA9CDE90D764FF00408CDE9D6
:101900000F4404F045FC8A480DA9CDE90D86CDE9C8
:101910000F4704F03DFC4FF4405386480DA9CDE934
:101920000D36CDE90F4704F033FC82480F940DA922
:10193000CDE90D8504F02CFC4FF400537E480DA931
:10194000CDE90D36CDE90F4404F022FC0DA90623A4
:101950007A480F94CDE90D3504F01AFC7848794B9C
:10196000794D036004F042F9DFF8FCC1774B2C623B
:10197000C5E900C328464FF48043C5E90434C5E9EE
:101980000244C5E9064404F0FBFE1021284605F098
:101990003FF92146284605F05AF96D4DDFF8CCE1B4
:1019A000AC624FF48273C5E900E34FF4007818236A
:1019B000C5E9068328460A23C5E90244C5E904446B
:1019C000C5E90844EB6206F047F88F232246394602
:1019D00057488DF824308DF8344004F0C3FC32466B
:1019E0004FF47A7309A9284606F092F84FF47A73F7
:1019F00032460DA9284606F037FA324639464C4899
:101A000004F0B0FC9DF83430D32B04BF514B1E7052
:101A1000514E524B0125C6E900354FF010094023C5
:101A20000024C6E904934FF4C073C6E906344FF4AA
:101A30000063C6E908344FF400534FF002084FF03A
:101A4000040A4FF0030BB3620DA9072330460827A1
:101A5000CDE90FA3CDE90D83C6E9024ACDE911B85E
:101A6000CDF84C8005F0DCFE4FF6FF7209A9304638
:101A7000CDE90A75089409950C9405F0F1FE284605
:101A800003F01CFE4FF6FF7209A93046CDE9098725
:101A9000CDE90B5405F0E4FE4FF6FF7209A930467C
:101AA000CDE909B7CDE90BA405F0DAFE4FF40C73CC
:101AB0000893089B0C934FF6FF7209A93046CDE9B5
:101AC00009A70B9505F0CCFE40F26A51304605F0AF
:101AD000E5FE342221460DEB020022F07AFE204E74
:101AE000204B3461C6E900340923C6E905351D23BE
:101AF000C6E9073B40F20D1240F24313C6E9092341
:101B000040F2171140F247133046C6E90B13C6E9FD
:101B10000244B48686F8364005F02CF9FF21F02205
:101B2000CDE9121424E000BF00380240001002404A
:101B300000080240000C0240001802400000024071
:101B40005C25002000300240C8240020A08601004F
:101B5000B82300207823002084230020400100A027
:101B60002024002000680140005C0040005001403B
:101B70004FF4806005214FF4A073CDE91401CDE945
:101B80000E240DA9CDE91642304622464E4E18933A
:101B9000CDE910380D94ADF864408DF8664005F03D
:101BA0009DF94A4B33601B68DFF87CA19847336886
:101BB000474EDB689847474B3046C6E90034C6E9D4
:101BC0000284C6E90A48C6E90C4404F01FF8294615
:101BD000304604F0D1F8404E4A4621460DA822F086
:101BE000F8FD3E4BB4604FF4803B3046C6E9003B05
:101BF0003461347686F82040F462C6F828A0F46098
:101C0000F56186F83040756103F06CFD0DA9304632
:101C1000CDE90D55324E0F9403F0FAFE4A462146A7
:101C20000DA822F0D6FD2F4BB4603046C6E9003B2C
:101C3000C6E90AA43461347686F82040F460F56180
:101C400086F83040756103F04DFD0DA93046CDE9B1
:101C50000D850F9403F0DCFE2348244B036005F050
:101C600093FDFEF7D5FCFEF7D2FC06F09BFB204A65
:101C70002946384606F0F0FC1E4B1F4A18602946DC
:101C8000384606F0E9FC1D4B1D4A186029463846C7
:101C900006F0E2FC1B4B1C4A18602946384606F049
:101CA000DBFC1A4B1A4A186021461A4806F0ADFBB5
:101CB000194B1A4A18602146194806F0A6FB194B21
:101CC000186006F081FBFEE764230020340000204A
:101CD0001C25002000B00240AC250020002001405F
:101CE0006425002000210140102400200008065037
:101CF00024640208742300200C640208702300206E
:101D0000F46302086C230020DC63020868230020CF
:101D10006064020899160008802300203C640208D1
:101D20001F0600087C2300200100000F7047704749
:101D30007FB5094B8DF817201B6802930DF1170230
:101D40000123009201930A460146044804F0C0FDB5
:101D500007B05DF804FB00BF10000020C82400207D
:101D60007FB500238DF81730084B1B6802930A4695
:101D700001230DF11701009101930146044804F07D
:101D800037FE9DF8170007B05DF804FB1000002037
:101D9000C82400201FB5084C24680092CDE9013406
:101DA0000A4601230146054804F022FE003818BF08
:101DB000012004B010BD00BF10000020C824002086
:101DC00003F07CBC10B5064C00222046042104F030
:101DD000C9FA20460122BDE81040042104F0C2BA2D
:101DE0000008024038B50B4D044601220A484FF462
:101DF000005104F0B7FA00220421284604F0B2FA98
:101E00002046FFF70FFC28460122BDE83840042198
:101E100004F0A8BA00080240000C024038B50B4D8F
:101E2000044600220A484FF4005104F09BFA0022B5
:101E30000421284604F096FA2046FFF7F3FB2846D3
:101E40000122BDE83840042104F08CBA00080240A9
:101E5000000C0240F7B5144E144F05460C463046B0
:101E60000022042104F07EFA00224FF4005138468B
:101E700004F078FA2846FFF7D5FB0D4B0D481B6898
:101E8000224601A905F0F0FF384601224FF4005127
:101E9000019C04F067FA30460122042104F062FA42
:101EA000204603B0F0BD00BF00080240000C024015
:101EB0000C000020B823002003F000BC0268034B94
:101EC0009A4201D103F0E8BB704700BF0010004008
:101ED0007047000082B00E4B00220092596C41F412
:101EE00080415964596C01F480410091009901923C
:101EF000196C41F0805119641B6C03F080530193FD
:101F0000019B0F216FF0010002B003F02FBE00BF54
:101F10000038024010B514228AB0044600210DEBAF
:101F2000020022F056FC23681E4A93421FD11E4B2A
:101F3000002101915A6C42F480725A645A6C02F486
:101F400080720192019A02911A6B42F001021A63A7
:101F50001B6B03F001030293029B022305931348BA
:101F6000032305A9069304F013F90AB010BD104A23
:101F70009342FAD10C4B002103915A6C42F4007247
:101F80005A645A6C02F400720392039A04911A6B19
:101F900042F001021A631B6B03F001030493049BDC
:101FA0000423DBE70020014000380240000002402B
:101FB000002101400268094B9A4282B00BD10023F4
:101FC0000193074B1A6B42F480521A631B6B03F4A4
:101FD00080530193019B02B0704700BF0030024064
:101FE0000038024007B50F4B02689A4216D1002212
:101FF000A3F5F0430192196B41F4000119631B6BC7
:1020000003F40003019305215A20019B03F0AEFD68
:102010005A2003B05DF804EB03F0DABD03B05DF8BD
:1020200004FB00BF00B002402DE9F043044689B034
:102030001422002103A822F0CCFB2268244B9A42F0
:1020400043D1244C244800250095236B43F004031E
:102050002363236B03F004030093009B0195236B20
:1020600043F001032363236B03F001030193019BFE
:102070004FF012094FF400734FF0010803270426B4
:1020800003A9CDE90339CDE90587079604F080F867
:102090004FF480731148079603A9CDE90339CDE9C0
:1020A000058704F075F80295236C43F4000323645C
:1020B000236C03F400030293029B236A43F400039E
:1020C0002362236A23F40003236209B0BDE8F0838E
:1020D000005C00400038024000080240000002405E
:1020E000F0B599B004461422002107A822F071FB34
:1020F00030220DEB0200002122F06BFB22685E4BC8
:102100009A4240F0B78008230C93C0231093042315
:1021100012930CA84FF40033159305F009FA08B197
:10212000FFF7D6FE554B5648002400945A6C42F0F7
:1021300080625A645A6C02F080620092009A0194A4
:102140001A6B42F020021A631A6B02F0200201920D
:10215000019A02941A6B42F001021A631A6B02F0A0
:1021600001020292029A03941A6B42F002021A636D
:102170001A6B02F002020392039A04941A6B42F063
:1021800040021A631A6B02F040020492049A05940A
:102190001A6B42F004021A631A6B02F004020592F1
:1021A000059A06941A6B42F008021A631B6B03F03F
:1021B0000803069302250E26069B0B964FF48063B8
:1021C00007A9CDE90735CDE9094503F0E1FF41F65F
:1021D00058032C480B9607A9CDE907350927CDE907
:1021E000094503F0D5FF032327480B9707A9CDE93D
:1021F0000735CDE9094503F0CBFF4FF47063224862
:102200000B9607A9CDE90735CDE9094503F0C0FFD5
:102210004FF40C631D480B9607A9CDE90735CDE9AE
:10222000094503F0B5FFC02319480B9607A9CDE96E
:102230000735CDE9094503F0ABFF082315480B9698
:1022400007A9CDE90735CDE9094503F0A1FF4FF412
:10225000A0530E480B9707A9CDE90735CDE90945ED
:1022600003F096FF58202246052103F07FFC5820FA
:1022700003F0AEFC19B0F0BD006801400038024028
:102280000014024000000240000402400018024016
:1022900000080240000C02400268094B9A4282B0DA
:1022A0000BD100230193074B5A6B42F040025A6353
:1022B0005B6B03F040030193019B02B0704700BFCA
:1022C000000806500038024010B5044688B01422B9
:1022D000002103A822F07DFA2268144B9A4223D1F0
:1022E00003F56843002101915A6C114842F48012B1
:1022F0005A645A6C02F480120192019A02911A6B8C
:1023000042F020021A631B6B03F020030293029B2E
:102310004FF4607202230321CDE903230523CDE9A5
:10232000061303A903F034FF08B010BD00500140AC
:10233000001402402DE9F04186B0002303932B4B9B
:102340001C68002C4FD14FF00108C3F80080284BC7
:1023500000949A6B274842EA08029A639B6B03EA4F
:1023600008030093022703260C25009B01A94FF6C2
:102370003F03CDE90137CDE9046503F009FF1E48AD
:10238000059501A9CDE90187CDE9034603F000FFDA
:1023900048F233131948059501A9CDE90137CDE974
:1023A000034603F0F5FE4FF683731548059501A922
:1023B000CDE90137CDE9034603F0EAFE4CF20373A1
:1023C0001048059501A9CDE90137CDE9034603F091
:1023D000DFFE60230C48059501A9CDE90137CDE961
:1023E000034603F0D5FE06B0BDE8F081F4250020D9
:1023F0000038024000140240000802400018024069
:1024000000100240000C02400004024070B588B089
:1024100000230293204B1A6C42F010021A641B6CCA
:1024200003F010030293054601A903A8029B05F0DF
:1024300061F8069B4BBB05F04DF8184E184B336006
:1024400040F2E733F360174BB0FBF3F3013B7360EB
:10245000304600233361B360B36105F0CFFE04461C
:1024600080B9304605F0A4FD044658B9362003F083
:10247000AFFB0F2D0DD822462946362003F076FB00
:10248000094B1D60204608B070BD05F023F84000E0
:10249000D3E70124F6E700BF00380240F82500200A
:1024A0000010004040420F009C0000207047FEE7F3
:1024B000FEE7FEE7FEE77047014805F0B7BD00BF45
:1024C000F8250020014804F0ACBC00BF2024002007
:1024D000014803F0C7BB00BF1C2500200120704746
:1024E00008B522F0D5F9162303604FF0FF3008BD80
:1024F00008B522F0CDF916230360FEE770B50D464E
:1025000014460E46731B9C4201DC204670BDAFF39F
:10251000008006F8010BF5E770B50D4614460E462F
:10252000731B9C4201DC204670BD16F8010BAFF313
:102530000080F5E74FF0FF3070474FF400534B60D9
:102540000020704701207047002070470A4A116838
:1025500008B5034609B90949116010686946034482
:102560008B4206D922F094F90C2303604FF0FF3020
:1025700008BD1360FCE700BF402600202048012072
:10258000704710B50421044620F0EBFF204610BD33
:10259000012908B506D0022908D059B901F056F929
:1025A000006808BD01F052F94068FAE701F04EF901
:1025B0008068F6E70020F4E7004870479864020856
:1025C0001420704713B5002451B1036801948DF8AD
:1025D000034001AA9C680DF10303A04702B010BD9F
:1025E0000846FBE7C0897047008A7047C08870477B
:1025F00080887047807A00F07F007047807AC00939
:1026000070470020704700009FED010A704700BF2F
:1026100000000000806A7047704710B5082104462A
:1026200020F09FFF204610BD7047704700F598735B
:102630000868496803C37047704770474160704736
:1026400070477047064BC0F84C310023C0F850313A
:1026500000F5A273C0F84801C0F84031704700BFD0
:10266000DD2700080123037270477047704710B4DC
:10267000C26841685410034601EB6200D20748BFAC
:102680000A599B685DF8044B48BFD3581847034666
:10269000406830B19A681AB9D86800F001007047F4
:1026A0000120704710B50C21044620F05AFF204647
:1026B00010BD10B51021044620F053FF204610BD78
:1026C00010B54FF4AE71044620F04BFF204610BD0C
:1026D00010B54021044620F044FF204610BD10B53F
:1026E0000EF00AFA0368BDE81040DB6B18470000E3
:1026F000054B1B7801462BB1406818B103680C31BB
:102700005B6E1847704700BFD73A0120037A70B557
:102710000546BBB940680368DB69984704463CB985
:102720006868036805F10C011B6EBDE8704018472E
:10273000A1886B8FC91A236820461B6B09B2984782
:10274000A469ECE770BD10B50446D0F8400158B15B
:102750000368DB68984738B1D4F8400103689B6888
:1027600098470023C4F8403110BD70B5044690F876
:10277000390094F838300130C0B2984284F83900FA
:1027800005D901232372002384F8393070BDB4F9D0
:102790003A20002110F053FBC30706D500284FF65E
:1027A000FF73C8BF0123184400B2238AC01AA08750
:1027B00060680368DB69984705462DB9606803685F
:1027C000BDE870405B691847A988A38F19442B683E
:1027D00028461B6B09B29847AD69EEE72DE9F14F2A
:1027E000D0E9556A0746B06803681B6A9847B0F598
:1027F000A87F05D2444B454AA321454821F0D0FD8E
:10280000706803681B6A98470F2803D8414B3F4AFA
:10281000A421F2E7F06803681B6A98470B2803D8E5
:102820003D4B3A4AA521E8E70EF066F9DFF8F09053
:1028300004300EF0A1F9D9F8000010B10368DB688C
:102840009847D9F8000010B103681B689847DFF873
:10285000D480D8F8000010B103685B699847D7F8B6
:102860003C0110B103685B689847D8F8000010B1CC
:1028700003681B689847D7F83C0110B103689B6850
:102880009847F068036800215B6A98474FF0000B97
:10289000224BC0F804B0044680F808B00360B0686A
:1028A000036859465B6A9847054601F03BFE70682D
:1028B000036859465B6A98472946064601F010FEB0
:1028C000331DC7F83C61C9F80040C8F80050CAF889
:1028D00000302B68C6F808A02846DB68EE639847EE
:1028E000336830461B6898472146284610F0A1FA05
:1028F000236820461B69984723685B69204601B01E
:10290000BDE8F04F184700BF73590208015A02088A
:10291000D95A0208205B0208C35B0208AC660208B1
:102920002C3B0120303B01202DE9F14FD0E9556AC5
:102930000746B06803681B6A984740F623639842CD
:1029400005D8564B564AA321564821F029FD7068F8
:1029500003681B6A98470F2803D8534B504AA42199
:10296000F2E7F06803681B6A98473F2803D84F4B8B
:102970004B4AA521E8E70EF0BFF8DFF84491043098
:102980000EF0FAF8D9F8000010B10368DB68984738
:10299000D9F8000010B103681B689847DFF824815C
:1029A000D8F8000010B103685B699847D7F83C017C
:1029B00010B103685B689847D8F8000010B103684D
:1029C0001B689847D7F83C0110B103689B6898478B
:1029D000F068036800215B6A984705460023344A83
:1029E0004360037245F80C2B044628460AF094FE17
:1029F000142222872F4A12780023A387002A35D178
:102A000001232372B068036800215B6A984705467A
:102A100000F0CEFF7068036800215B6A9847294682
:102A2000064600F059FF331DC7F83C61C9F8004065
:102A3000C8F80050CAF800302B68C6F808A028462D
:102A4000DB68EE639847336830461B689847214639
:102A5000284610F0EEF9236820461B699847236842
:102A60005B69204601B0BDE8F04F18471249134A90
:102A7000B1F900B0E168236128468B6BB2F9001010
:102A80009847E3685946DB6B2846984728460AF082
:102A9000BFFD0A4A13885B426387B3E77359020894
:102AA000665C0208D95A0208205B0208C35B020870
:102AB000D0660208D73A0120DE3A0120E03A012030
:102AC0002C3B0120303B0120044B1B6893F85C2019
:102AD0000AB1186D00B99868704700BFE43A012048
:102AE000F8B5174604460E460EF018F9124B1C6056
:102AF000124B2360124B0025C4E95135114BC4E938
:102B000053551868036801219B68C4E94F55C4E90F
:102B100055769847284600F04DFEFFF7D5FF18F090
:102B2000F0FDFFF7D1FF18F067FEFFF7CDFF18F0BB
:102B30006FFE2046F8BD00BF343B012058660208F6
:102B400040660208E43A0120064BC0F84C310023ED
:102B5000C0F8503100F5A273C0F84801C0F8403108
:102B6000704700BFDD270008064BC0F84C3100233A
:102B7000C0F8503100F5A273C0F84801C0F84031E8
:102B8000704700BF29290008704770477047704799
:102B9000704730B5036885B06D460181D3F8843045
:102BA000014604462846984795E807003C3484E8E7
:102BB000070005B030BD30B5036885B06D46418172
:102BC000D3F88430014604462846984795E8070024
:102BD0003C3484E8070005B030BD0022028042800A
:102BE0008280C280704780F83610704770B50368E5
:102BF00004461B6B154698472368294620465B6EA2
:102C0000BDE87040184700207047806C70477047DF
:102C10007047704710B54C21044620F0A2FC2046B6
:102C200010BD10B54FF44871044620F09AFC2046C0
:102C300010BD08B5FEF700FC08BD0000036870B5C4
:102C40005E6B124B1B6804468DB22BB9104B114AB8
:102C50006C21114821F0A4FB1049828D0988914212
:102C600003D80F4B0B4A6D21F3E713F812200D4BDD
:102C70001B6853F8220003681B6B9847291A3346D8
:102C8000204609B2BDE87040184700BF443B012010
:102C9000515D0208935D0208CE5D0208383B0120B9
:102CA000155E02083C3B012000224FF0FF31C0E9D5
:102CB00000218260704770B5036804461B6B15469F
:102CC00098472368294620465B6BBDE8704018474B
:102CD00070B504461D46BDF91060FFF7ECFF236890
:102CE000294620469B6B9847236831462046DB6B7C
:102CF000BDE87040184700000022C0E90122C0E989
:102D00000322C0E90522C0E907224FF480728284C1
:102D1000014A0260704700BFF466020838B52622F7
:102D200004460D46002121F054FD2046FFF7E4FF44
:102D3000064B23602B88E384FF23204684F8283049
:102D400029460BF078F8204638BD00BFDC6D02083C
:102D5000F8B5194B018F1B888B4206462AD9174BB1
:102D60001B682BB9164B174A17486C2121F018FB2A
:102D700013F81120154B1B6853F82250144B186898
:102D800000F054FD2B6807469B6B284698472B683C
:102D900004469B6C3946284698472B6814FB00F480
:102DA0005B6A394628469847A4B223181BB2A6F896
:102DB0004630F8BD0023FAE7383B0120443B0120B0
:102DC000515D0208935D0208CE5D02083C3B012084
:102DD000403B012010B526220446002121F0F9FCD9
:102DE0002046FFF789FF0A4BA3624FF6FF73A385C6
:102DF0004FF47F020023C4E90C32064A2260238785
:102E00004FF0FF32C4E91023E363A364204610BDF2
:102E1000306602085C6702082DE9F04F044691B065
:102E2000274600250FF06AFE824BE56347F8403BDA
:102E300026222946384621F0CCFC3846FFF75CFFB5
:102E40007D4B236404F16C0BFF234FF6FF7604F1F6
:102E5000980884F866300EA95846A56604F1E00A81
:102E6000ADF83860FFF75AFF40460BF071F904F5F2
:102E700086790EA95046ADF83860FFF74FFF0EA9CE
:102E80004846ADF83860FFF749FF04F59C730EA97A
:102E900018460793ADF83860FFF740FF04F5B273AA
:102EA00018460293FFF796FF04F5D873184603936C
:102EB000FFF790FF04F5FE7318460493FFF78AFFAF
:102EC00004F5127318460593FFF784FF04F5257384
:102ED0000EA918460693ADF83860FFF71FFF574B51
:102EE000C4F894324FF0FF320123C4E9B1234FF408
:102EF000A0732A463846C4F8C05284F8CC522946FA
:102F00000093F023FFF7E4FE261D4FF07F43A366F6
:102F10003946304607F097FC2A4658462946FFF7BF
:102F2000CAFE58460EA9ADF838500AF084FF59463B
:102F3000304607F088FC4046BD222321FFF7BBFE48
:102F400007270EAA0DA940464FF0080BADF83470C4
:102F5000ADF838B00AF047FE4046A4F8D0B0FFF70D
:102F6000F7FE4FF0FF33C4E935334146304607F0F2
:102F70006AFC01225046CC21FFF79DFE4FF00C0861
:102F800050460EA9ADF838800AF055FF514630463C
:102F900007F059FC01224846A921FFF78CFE48465C
:102FA0000EA9ADF838800AF046FF4946304607F0D2
:102FB0004AFC01220798DFF89CA08621FFF77BFEE0
:102FC0000798ADF838800EA90AF035FF079930460A
:102FD00007F039FC1D230422029800933946602330
:102FE000FFF776FE4FF0FF33C4F89431D4F8643124
:102FF0000299D3F88430A4F898510DF12008404686
:10300000984798E8070004F5D07383E80700DAF8DA
:10301000003004F534792BB9094B0A4A60210A487B
:1030200021F0BEF9094B1B88052B15D8084B054A22
:103030006121F4E7EC670208746D0208F86C02087D
:10304000515D0208535E0208CE5D0208383B012044
:10305000155E0208443B0120DFF8A4B10521DBF82E
:10306000000000F0E3FB644A03460A21484611F0E1
:103070006EF90298C4F8AC910EA9DFF88891ADF80A
:103080003C70CDF8389022270AF050FD0299304666
:1030900007F0D9FB732203980097F0232946FFF726
:1030A00017FE4FF0FF33C4F8E031D4F8B031039984
:1030B000D3F88430A4F8E4514046984798E80700D4
:1030C00004F5F67383E8070004F539730398C4F830
:1030D000F8310EA90623A4F8E452ADF83C30CDF83F
:1030E00038900AF023FD0399304607F0ACFB952297
:1030F00004980097F0232946FFF7EAFD4FF0FF33CD
:10310000C4F82C32D4F8FC310499D3F88430A4F8F4
:1031100030524046984798E8070004F50E7383E85C
:10312000070004F53E730498C4F844320EA9032343
:10313000A4F8F852ADF83C30CDF838900AF0F6FC1F
:103140000499304607F07FFB732205980097F0231F
:103150002946FFF7BDFD4FF0FF33C4F87832D4F8AD
:1031600048320599D3F88430A4F87C5240469847F9
:1031700098E8070004F5217383E80700DAF80030C7
:1031800004F54377002B3FF447AF1C4B1B88012B02
:103190007FF64CAFDBF80000012100F047FB164A38
:1031A00003460A21384611F0D2F804230598C4F8E2
:1031B00090720EA9ADF83C30CDF838900AF0B6FC0C
:1031C0000599304607F03FFB06980122D021FFF712
:1031D00072FD0E2206980D210AF081FB069801214E
:1031E0000AF08FFB3046069984F8BC5207F02BFB9F
:1031F000204611B0BDE8F08F9E5E0208383B0120EA
:10320000403B012030660208406A7047806A704780
:1032100070478A880B8810B5D20A4C88C1699BB266
:1032200051F8220043EA0443184410BD10B5044687
:10323000BAB1107B68B1537BD27A1B0203F4E0630E
:103240001A43236A03EB82031A888A4202D193F954
:10325000020010BD05D8013880B204330028F3D134
:10326000F7E70020F5E710B52C21044620F079F9A6
:10327000204610BD30B58BB00446BDF860500895AF
:10328000BDF85C5007959DF8505006959DF84C5040
:1032900005959DF8485004959DF8445003959DF878
:1032A000405002959DF83C500195BDF8385000956E
:1032B0000FF030FA064B2360159BE361169B2362E7
:1032C000199B63621A9BA36220460BB030BD00BFFE
:1032D0002068020870477047704730B4C26844687D
:1032E0005510034604EB6200D20748BF62599B6841
:1032F00030BC48BFD35818470346406830B19A687D
:103300001AB9D86800F0010070470120704710B565
:103310001021044620F025F9204610BD10B54FF4C9
:10332000A871044620F01DF9204610BDE430884203
:1033300008B505D10DF0E0FBBDE80840FFF714BC6F
:1033400008BD00002DE9F04F04468BB0A0460025D3
:103350000FF0D4FB724BE56348F8403B2622294628
:10336000404621F036FA4046FFF7C6FC6D4B236419
:1033700004F16C07FF2384F8663026222946A566EF
:10338000384621F026FA3846FFF7B6FC664BC4F8FB
:1033900094304FF47F034FF6FF7904F1B806C4F878
:1033A000A0304FF0FF3B614BE36626222946A4F88C
:1033B0009890C4E92BB5C4F89C50A4F8A450C4F864
:1033C000A850C4F8B4503046ADF8209021F001FA6E
:1033D0003046FFF791FC564BC4F8B830BDF82030AA
:1033E000A4F8DE3008A984F8E090304604F1E4093E
:1033F0000AF021FD48460AF0ABFE4E4BC4E95034BA
:103400004D4BC4E952354FF4A0732A464046009311
:103410002946F023FFF75CFC04F1040A4FF07F43D8
:103420004146A366504607F00EFA22238F220093EE
:103430002946F0233846FFF74BFCE36EC4F89CB0F6
:103440000DF108084046D3F88430A4F8A05039465E
:10345000984798E8070004F1A80383E80700374B72
:103460001B6804F596782BB9354B364A60213648EF
:1034700020F096FF354B1B881BB9354B314A612133
:10348000F5E7344B2946186800F0D0F9324A034674
:103490000A21404610F05BFF234B089308A9022342
:1034A0003846C4F8B480ADF824300AF03FFB394602
:1034B000504607F0C8F91B2230461421FFF7FBFBEA
:1034C000132308A93046ADF820300AF0B4FC314689
:1034D000504607F0B8F94846BB222321FFF7EBFB23
:1034E000072308AA07A9ADF81C3048460823ADF801
:1034F00020300AF078FB0923A4F81C314846FFF776
:1035000027FC04F5A0735046C4E948BBC4F80C314D
:10351000494607F098F920460BB0BDE8F08F00BF90
:10352000A0680208746D0208306602085C67020831
:10353000DC6D0208886802082D330008443B012036
:10354000515D0208535E0208CE5D0208383B01203F
:10355000155E0208403B01209E5E02087047000095
:1035600030B5164D2C6814F001048FB0BFF35B8F9B
:1035700020D128461FF0F7FFE0B13F230993104BFD
:103580000893104B104911480A940122CDE90643D3
:103590000423CDE903320A230093CDE90B44CDE99E
:1035A00001440594FFF766FE094820F017FF2846FE
:1035B0001FF0E5FF05480FB030BD00BF44260020D6
:1035C000A0880208F0880208B08602084826002079
:1035D0005D3500087047000030B5174D2C6814F0B9
:1035E00001048FB0BFF35B8F22D128461FF0BBFFD1
:1035F000F0B13F230993114B0893114B079301231B
:10360000CDE9054304930423CDE9024318230D4972
:10361000009321221D23CDE90B440B480A94019409
:10362000FFF728FE094820F0D9FE28461FF0A7FF23
:1036300005480FB030BD00BF74260020A4880208E2
:10364000F4880208C086020878260020D5350008D4
:103650007047000030B5164D2C6814F001048FB08F
:10366000BFF35B8F20D128461FF07DFFE0B13F23E1
:103670000993104B0893104B104911480A940122EA
:10368000CDE906430423CDE9033228230093CDE995
:103690000B44CDE901440594FFF7ECFD094820F007
:1036A0009DFE28461FF06BFF05480FB030BD00BFE0
:1036B000A4260020EC880208F888020890880208F6
:1036C000A8260020513600080020704700207047CF
:1036D0000EB403B503AB002153F8042B01930EF095
:1036E0009DFA02B05DF804EB03B070470CB407B567
:1036F00004AB53F8042B01930EF090FA03B05DF87D
:1037000004EB02B070470000436C10B5044673B37D
:10371000038F2BB9184B194AC521194820F040FED8
:10372000C38E00EB43035B8C0BB310F0ADF8238F1B
:10373000012B03D8134B144ACB21EEE7E28E531C26
:103740009BB2092B194688BFA3F10A0104EB410182
:1037500040F63F10498C814209D10A2B04EB42020A
:1037600028BF002304EB4303508C58845184204627
:10377000BDE810400FF08BBFA15E0208AA5E0208F0
:10378000555F02089F5F0208AD5F02080FF047BF58
:1037900010B586B002AC84E806001A460AAB059361
:1037A0000193099B00932146089B0CF01AFD06B07B
:1037B00010BD000038B518BB124B13481C681349E4
:1037C000B4B1226822440260626822440A60A2689E
:1037D00014440F4B00221A8000F038F8054600F020
:1037E00033F80C4B1C600C4B1D600C4B188007E031
:1037F0000B4B03600B4B0B600B4B1C68002CE8D190
:1038000038BD00BFE0260020D8260020D4260020A6
:10381000DC260020443B01203C3B0120383B0120BA
:1038200024890208FC880208CC680208044B1B6843
:1038300053F82100034B1B6803EB4000704700BFA7
:10384000D4260020D82600200A2070470048704760
:10385000E426002010B5FFF7BFFE044C2060FFF700
:10386000F9FE6060FFF77CFEA06010BDE42600203A
:1038700010B5002404600C6014601C6010BD70471B
:1038800010B54FF4AE7104461FF06BFE204610BD1C
:1038900010B50446D0F8580100F069FE2046BDE896
:1038A00010400DF0CBB9000010B50446FFF718F931
:1038B000014B2360204610BDD868020870470438C9
:1038C0007047704710B5102104461FF04AFE20468D
:1038D00010BDA0F10400F5E700228260024A0260F8
:1038E00018324260C16070472C69020810B50D4C57
:1038F000206818B104F0CDFD002323600A4B01229B
:103900001A600A4A00231370094A1370094A137097
:10391000094A1370094A938003239385084BD360A7
:1039200010BD00BFF4260020240000200B2700203B
:103930000527002004270020F0260020282D002045
:103940006400C800134B70B5044603604FF45A6519
:1039500040F6E836B54205D0635960191B689847B0
:103960002C3DF7E7635960191B682C3D9847B5F566
:10397000236FF7D14FF42265635960191B683C3DF2
:103980009847B5F5467FF7D12046FFF741F9204625
:1039900070BD00BF5469020810B50446FFF7D2FF9E
:1039A000204640F624611FF0DCFD204610BD0000DB
:1039B0002DE9F04F05468FB0FFF72EFA05F54A7A4C
:1039C000824B2B604FF6FF7702A95046ADF8087086
:1039D000FFF7A4F905F55579DFF8F8B105F65C288D
:1039E0004C460026204602A9ADF80870FFF796F96C
:1039F0000123C4F800B0E6622786678684F8343075
:103A000084F8356084F8366084F8376084F838606C
:103A10003C344445E6D105F61443019326464FF65F
:103A2000FF77304602A9ADF80870FFF777F9019BE0
:103A30002C369E42F5D19B4605F6CC574FF6FF76C5
:103A4000584602A90BF12C0BADF80860FFF766F998
:103A5000BB45F5D102A95846ADF80860FFF75EF9FD
:103A600005F6F8524FF0000802A910460092ADF892
:103A70000860574EFFF752F9C5E9C88802A800F060
:103A800059FEBDF80C20B280BDF924200599B283FF
:103A90000A9AF160326206990B9A31617262079953
:103AA0000C9A71612F1D0899B26202A8BDF83420EA
:103AB000B285B16100F050FE384605F1980106F07C
:103AC00039FF384605F5D87106F034FF384605F55C
:103AD000FE7106F02FFF384605F5127106F02AFF39
:103AE000384605F16C0106F025FF0C220098ADF870
:103AF000082002A90AF09FF93846009985F81D8E22
:103B000006F0A1FE02A95846ADF808800AF093F924
:103B1000424641465846FFF7CEF83846594685F8A2
:103B2000F18D06F090FE112302A95046ADF8083041
:103B30000AF081F9B6F90E20B6F90C105046FFF7DD
:103B4000BAF83846514606F07EFE0A2704F5DC76C0
:103B5000212240F241113046FFF7ADF8D4F8B831D8
:103B600002A91B6EADF80870304698472046212206
:103B700040F24111FFF79FF8236806221B6EADF853
:103B80000820204602A99847019B2C349C42DDD195
:103B900000240326B4FBF6F303EB4303E31A012BE3
:103BA0000FD0022B0FD00D2248461146013409F0E8
:103BB00096FE1E2C09F13C09ECD128460FB0BDE859
:103BC000F08F0F22F0E70E22EEE700BF54690208E3
:103BD000282D0020F86C02082DE9F843051D00F59A
:103BE000B27904464946284604F59C7806F0A2FEC0
:103BF0004946284606F027FE4146284604F58677C2
:103C000006F098FE4146284606F01DFE3946284635
:103C100004F1E00606F08EFE3946284606F013FE53
:103C20003146284606F086FE04F6F854314628460A
:103C300006F009FE2146284606F07CFE214628466D
:103C400006F001FE48460EF011F940460EF00EF95E
:103C500038460EF00BF93046BDE8F8430EF006B9D1
:103C60002DE9F04F844B1B788FB00446002B00F0F9
:103C7000ED80012380F81D3E804BB3F90020804B7E
:103C800000F6F850B3F90010FDF729FB00238DF87A
:103C900012307C4B186804F07BFD0746002F40F083
:103CA000E1809DF81250012D51D1DFF8F49199F87F
:103CB0000030002B40F09D80261D04F16C08414629
:103CC000304604F1980B06F0BEFD04F5D87A59464B
:103CD000304606F0B8FD5146304606F0B4FD04F516
:103CE000FE7319463046019306F0ADFD664B674AF8
:103CF0009B8884F8915084F8BD5084F8D55184F89D
:103D000021520A2104F5397010F021FB604B5F4A03
:103D10001B680A2104F53E7010F019FB40460EF0B6
:103D2000A5F858460EF0A2F850460EF09FF80198FC
:103D30000EF09CF830460EF099F8564B89F800507A
:103D40001D70554D286810B104F0A3FB2F609DF83D
:103D50001230022B29D1DFF8488198F80070002F2B
:103D600047D1251D04F512762846314606F06BFD35
:103D70004A4B464A1B680A21013304F5437010F090
:103D8000E6FA30460EF072F82846434D0EF06EF813
:103D9000404A28680123137088F8003010B104F0FD
:103DA00078FB2F60B423C4F820339DF81230032B26
:103DB0001FD13B4B1B78E3B9334B3A4A93F82C3075
:103DC000137053B1FF22012B84F8082105D0032B77
:103DD00084F8342108BF84F8602104F59C700EF04B
:103DE00045F804F586700EF041F804F1E0000EF09D
:103DF0003DF8DFF8B490244ED9F8000000278DF884
:103E0000137004F0C5FC04F54A7500285DD04FF02E
:103E1000FF33D9F800003A460DF1130104F088FC95
:103E20009DF81330522B41D1B6F9281006F1080045
:103E300000F010FD1223284605A9ADF8143009F052
:103E4000FAFFD9F8000004F0A5FC3EE090F81D2E22
:103E5000002A3FF41BAF80F81D3E00F6F8500EF02C
:103E600005F813E70748002300681A460DF1120110
:103E700004F05EFC013F11E7FD2600201800002041
:103E80001C00002068230020282D00207F600208ED
:103E90000027002004270020F42600202400002012
:103EA000F026002014000020742300204E2B40F048
:103EB0000781394606F1080000F0CCFC112305A962
:103EC0002846ADF8143009F0B6FFB94FDFF8F48298
:103ED000386804F05DFCA8B14FF0FF333868002269
:103EE0000DF1130104F024FC9DF81330552B40F024
:103EF000F080B048B6F9281000F0AEFCD8F8000009
:103F000004F048FCD8F8000004F042FCB0B14FF0D7
:103F1000FF33D8F8000000220DF1130104F008FC73
:103F20009DF81330442B40F0DC80B16AA14849422F
:103F300009B200F091FC386804F02CFC2846B6F970
:103F40000E20B6F90C10DFF88082FDF7C8F904F6F0
:103F50005C2704F6144301933D4604F1040AB8F9C2
:103F60001030022B00F0C580042B00F0D380012B11
:103F700007D12B68B8F906209B6DB8F904102846C4
:103F80009847019B2C359D4208F11C08E7D104F5A8
:103F9000DC730393DFF83482DFF834B2231D254647
:103FA0000293B8F91030022B00F0BA80042B00F015
:103FB000DC80012B09D1D5F8143CB8F906209B6DA3
:103FC000B8F9041005F614409847039B2C359D4220
:103FD00008F11C080BF1040BE3D104F5557A04F643
:103FE0005C23DFF8F0810293554604F1040BB8F925
:103FF0001030022B00F0C080042B00F0CE80012B8B
:1040000007D12B68B8F906209B6DB8F90410284633
:104010009847029B3C359D4208F12008E7D1DFF824
:10402000B881B6F92C3098F80020934204F10405C9
:1040300017D05022DBB288F8003084F8082184F8C9
:10404000342184F86021002B00F0AD80FF22012B89
:1040500084F8082105D0022B84F8342101D084F89B
:104060006021B388544ADFF874B10A2104F5347032
:1040700010F06DF928460DF0F9FED4F82033002B2E
:1040800040F32181013BC4F820330393002B40F01F
:104090001A814A4A106820B104F0FBF9474A039B91
:1040A0001360474A1368591C116004F6CC50032B67
:1040B00000F2B681DFE813F09400AE01B001B20166
:1040C000B16A494209B206F1080000F0C3FB1023AF
:1040D000B1E64E2B7FF416AF3648002100F0BCFB52
:1040E00010E74E2B7FF42AAF3248002100F0B4FBDA
:1040F00024E72B68B8F906209B6DB8F90410284610
:1041000098472946504606F09EFB0121404600F0A4
:10411000E7FA36E72946504606F00CFC0321F5E79E
:10412000D5F8143CB8F906209B6DB8F9041005F6D3
:10413000144A50469847D5F8143CDBF800201B6E13
:1041400072B90922ADF8142005A950469847514686
:10415000029806F078FB0121404600F0C1FA34E7EE
:10416000012A0CBF0A220B22ECE705F61441029843
:1041700006F0E0FB0321EFE72B68B8F906209B6D02
:10418000B8F90410284698472946584606F05BFBC4
:104190000121404600F0A4FA3BE72946584606F0C4
:1041A000C9FB0321F5E728460DF060FE59E700BF83
:1041B00070230020302D00207F600208F4260020AC
:1041C000240000206C230020102C0020F82A00205E
:1041D000D02A00201027002014000020F026002004
:1041E000012305A9ADF8143009F025FE28460DF08D
:1041F0003DFE04F6CC5003900DF038FE894A03983A
:1042000000231370884A8BF800301370874A1370AC
:10421000012384F8F13D0DF029FE642004F051F9EA
:104220002046FFF7D9FC00F0ABFE5146284606F0C9
:1042300081FB029B0AF13C0A9A45F6D1BA465146E7
:10424000284606F077FB0AF5DC71284606F072FB7B
:10425000019B0AF12C0A9A45F1D104F5127A5146D4
:10426000284606F067FB50460DF000FE28460DF08C
:10427000FDFD04F59C700DF0F9FD04F586700DF060
:10428000F5FD04F1E0000DF0F1FD04F5B2700DF064
:10429000EDFD4FF0000A664B8DF812A0202251462A
:1042A00006A8C3F800A020F094FA624B05934FF4DF
:1042B00080411823CDE90A135F4805AA514604F04E
:1042C000A4F85E4B18609BF80030002B00F09F8034
:1042D00094F8BD30002B00F09A8094F8C430002B85
:1042E00000F09580DFF854A1DAF8000020B104F066
:1042F000D0F80023CAF80030514B186804F04AFA8D
:10430000D9F8000004F046FA4E4B474901221A60E2
:1043100000230B704549B3800B708BF800304A497D
:10432000F1600323B38504F6CC56304605A988F81E
:104330000030ADF8142009F07EFD30460DF096FDFA
:104340004FF4557640F65C2904EB060841462846B2
:1043500006F0F0FAA35940465B693C3698474E4553
:10436000F2D1394607F5DC76284606F0E3FA314605
:10437000284606F0DFFA3B6838465B699847D7F86D
:10438000B83130465B699847019B2C379F42E8D192
:10439000002604F16C01284684F8916084F8BD6021
:1043A00084F8D56184F8216206F0C4FA04F198011A
:1043B000284606F0BFFA04F5D871284606F0BAFA86
:1043C00004F5FE71284606F0B5FAFF2384F8603143
:1043D00084F8343184F8083100F0D2FD2046FFF72C
:1043E000FBFB28460DF042FD2022314606A820F0B6
:1043F000F0F9104B05934FF480421823CDE90A23BE
:104400000D4805AA314604F000F8CAF800000FB0C4
:10441000BDE8F08F0223E4E60323E2E60423E0E6AE
:104420000523DEE60B2700200527002004270020B7
:1044300030000020826002089D4B0008F426002016
:1044400068230020240000206400C80010B5044642
:104450008AB0FEF7DEFB012384F8F13D2046124CC2
:10446000FFF7BAFB206804F014F8104B186804F04A
:1044700091F92022002102A820F0ABF90C4B019306
:104480004FF480421823CDE90623002101AA0948F0
:1044900003F0BBFF084A206000231370074A137023
:1044A000074A13700AB010BDF426002068230020CC
:1044B000826002089D4B0008052700200427002089
:1044C000F0260020704704387047704710B510215F
:1044D00004461FF046F8204610BDA0F10400F5E7A1
:1044E00000228260024A026018324260C160704756
:1044F000886902087047000010B5034B036004464A
:10450000FEF7E9FE204610BDB069020810B504466A
:10451000FFF7F2FF20464FF4A8711FF022F8204663
:1045200010BD000010B50446FEF70CFF014B2360E0
:10453000204610BDB069020810B50446FEF7CCFE57
:1045400000F0B2F9064B074A1B6804F596700A2181
:104550000FF0FDFE04F16C00BDE810400DF086BCCC
:10456000002700207F600208002202607047704729
:1045700010B5034B0360044600F09DF8204610BDC3
:10458000E469020810B50446FFF7F2FF20461C213B
:104590001EF0E7FF204610BD10B5044600F096F867
:1045A000054B23604FF018120023C4E90223A361D6
:1045B00003232361204610BDE4690208B0F90830E6
:1045C00010B5B0F904405B429C420BDBF02C09DCD7
:1045D000B0F90A30B0F906205B429A4202DBB2F52C
:1045E000A07F05DD0423038283694382002010BD80
:1045F000438A591A09B200294182F7DC83891C4495
:10460000C38984801A448369C28043820120EEE713
:1046100010B5034B0360044600F04DF8204610BD72
:10462000F869020810B50446FFF7F2FF2046202182
:104630001EF097FF204610BD10B5044600F046F866
:10464000074B236000220F234FF02011C4E90623FB
:10465000C4E9021203222261A382204610BD00BFDA
:10466000F8690208B0F90830B0F904205B429A42B8
:1046700010B508DBF02A06DCB0F90A30B0F90640C4
:104680005B429C4207DA04230382C3698382836905
:104690004382002010BD438A591A09B20029418281
:1046A000F7DC83891A44C38982801C448369C480EF
:1046B00043820120EEE770470020704710B51821B3
:1046C00004461EF04EFF204610BD0000034A026063
:1046D000032202824FF02012826070470C6A0208A7
:1046E000018270478180C28070478181C28170479A
:1046F000B0F90420B0F9083010B5B1F90440134402
:10470000A34215DDB1F9083023449A4210DAB0F91A
:104710000630B0F90A20B1F906401A44A24207DD7A
:10472000B1F90A2022449342ACBF0020012010BD01
:104730000020FCE710B5054B03600023044683808E
:10474000083000F033F8204610BD00BF206A020890
:10475000838819448180704710B5044B044640F8A3
:10476000083B00F00FF8204610BD00BF206A020889
:1047700010B50446FFF7F0FF204630211EF0F1FE91
:10478000204610BD10B5034B03600446FFF793FFAE
:10479000204610BD306A020810B50446FFF7F2FF4C
:1047A000204628211EF0DDFE204610BD10B504462F
:1047B000FFF78CFF0321094B0948236023220023C4
:1047C0002162A1844FF01C11C4E90101C4E9063241
:1047D000E360A2826382204610BD00BF306A0208F7
:1047E00068000401438A591A09B2002941821FDC7A
:1047F00082888389C1891A44C38812B20B441BB2D0
:1048000081698280002AC380418207DA0022828087
:10481000002B07DA0023C38001207047D02AF7DD80
:10482000D022F4E7B3F5907FF6DD4FF49073F2E712
:1048300000207047838A591A09B20029D8BFC3697A
:104840008182DABF8382012000207047838C5B1A4B
:104850008384704781817047C181704730B587B0CC
:10486000044601F04DFB0E4BF322DA600023CDE944
:104870000033022517220123CDE90323059572B6E3
:10488000694601A801F030FC034620B905492246DB
:10489000284601F079FB62B601F044FB07B030BD59
:1048A000003C024000001E08044B054A1B6893426E
:1048B00088BF0023034A1360704700BF00001E0832
:1048C0009F860100002700202DE9F74F484BDFF8B5
:1048D0002C911A6899F800400190052A1546A8BF46
:1048E0000525C4B9DFF818A1424E032A4FF0060887
:1048F0004FF0010208FB05F7B4BF4FF0010B4FF07A
:10490000020BCAF80020BC424DDB012389F80030BD
:10491000394B00221A60374C4FF000082646338A84
:10492000013B9BB2012B0DD801993046FFF79AFE4F
:10493000B6F90430EF2B05DDF2884FF6E071304612
:10494000FFF7D0FE08F10108B8F11E0F06F12006AE
:10495000E5D1294A6FF0130113684D430133C8357F
:10496000AB4242DB00251560238A013B9BB2012B41
:1049700011D8E288A1880F3292B22046FFF7B2FE2A
:10498000B4F90630B3F58C7F05DDA1884FF6E072EF
:104990002046FFF7A7FE01351E2D04F12004E3D1C8
:1049A00003B0BDE8F08FB4FBF8F1C1EB011208FBD6
:1049B000114101EB81015200C1EBC10114320A31F6
:1049C000304692B289B2FFF78DFEDAF8001011FB83
:1049D0000BF13046002289B2FFF787FE30460221F4
:1049E000FFF77EFE013420368DE71360D8E700BF65
:1049F0002400002010270020F82600200C2700208B
:104A00002C0000202DE9F843014606461348144CBB
:104A1000DFF85080DFF85090FFF70CFF04F58C773B
:104A20000546B4F91030032B08D031462046FFF775
:104A3000C5FD1C34BC42F4D1BDE8F88365B1B8F8BB
:104A40000020B9F80010103A204692B2FFF74AFE53
:104A500002212046FFF744FE0025EAE7302D002022
:104A6000102C002006270020082700202DE9F04FF9
:104A7000434B444ED3F8009033681B1A002BA1B06F
:104A80000546336062DC404A00231F469246B2F975
:104A90001010012901BF20A901EB8701013741F85E
:104AA000783C01331E2B02F12002F0D1002F4DDDA6
:104AB00000243648019401A902F07EFE00B1019461
:104AC000334B4FF000089B46B3F91040032C4FD1F5
:104AD000019BB3FBF7F207FB123320AA02EB83031F
:104AE00053F8787C0AEB471A1C23BAF80620BAF868
:104AF000041003FB08BB103292B25846FFF7F2FDD8
:104B00001FFA89F200215846FFF7EFFD02215846AF
:104B1000FFF7E6FD97FBF4F41E4B04EB44043F1B48
:104B200043F828701C4B1B68052BA8BF05236FF0AA
:104B300009025343019A1E213C33B2FBF1F001FB01
:104B40001022142BACBFD21814323260104C002645
:104B5000B4F91030012B03D129462046FFF72EFD72
:104B600001360A2E04F11C04F2D121B0BDE8F08F09
:104B700008F10108B8F10A0F03F11C03A4D1D1E731
:104B800020000020280000201027002010240020F2
:104B9000F82A0020D02A0020240000202DE9F04F20
:104BA000BF4AC04EC04F002385B01370BF4A337058
:104BB00001211160BE4A3B705A211160BD4A137039
:104BC000BD4A1268012A01BFBC4A03219185938026
:104BD0004FF00008BA4B4FF6CE7208EB03051146B2
:104BE0002846FFF77FFDB74B4FF6CE7208EB030464
:104BF00011462046FFF776FD4FF6FC72002128464D
:104C0000FFF773FD042200212046FFF76EFD03210C
:104C10002846FFF765FD08F11C0803212046FFF731
:104C20005FFDB8F58C7FD5D1A74C00254FF6CE722D
:104C300011462046FFF756FD013520460321FFF7B8
:104C40004FFD1E2D04F12004F0D1FFF72DFE03F0DF
:104C5000D5FBDFF89C82994C0090009B10330093A9
:104C600033783BB13B78002B40F0E280009803F0B2
:104C700034FCF2E7954BA2891A80954BE2891A80A1
:104C8000012088F80000FFF71FFE98F800109148F7
:104C9000DFF83492DFF83CB2FFF7A4FD98F800008B
:104CA000FFF7B0FE98F80000FFF7E0FE4FF01E0A95
:104CB000B9F91050012D40F0C18059464846FFF720
:104CC00017FD002800F0BA8082482946FFF7BEFD94
:104CD00004214846FFF704FD7E484FF482726821A4
:104CE000FFF700FD2A464FF400517B4801F03AFBE4
:104CF000962003F0E6FB784800224FF4005101F0C3
:104D000031FB714D4FF01E09B5F91030012B34D134
:104D1000DFF8ACA10A22BAF910B0BBF1010F40F0E4
:104D20009480514628460192FFF7E2FC019A002840
:104D300000F08B8004212846FFF7D2FC0421504666
:104D4000FFF7CEFC05212046FFF702FD594B1B78EB
:104D50009BB900F0ADFC6423B0FBF3F202FB13003F
:104D600004280AD85D4BB5F904201A605C4BB5F9EC
:104D700006201A604F4B83F800B0B9F1010905F124
:104D80002005C1D14B4B1B787BB1554A534D13685D
:104D9000991CB1F5A07F11605DDD464A00231370B8
:104DA0004F4A6FF063032B601360DFF81891DFF850
:104DB00024B14FF00A0AB9F91050012D40F09A8041
:104DC00059464846FFF794FC002800F0938041487C
:104DD0002946FFF73BFD04214846FFF781FC3D488B
:104DE0004FF482726821FFF77DFC2A464FF4005190
:104DF000394801F0B7FA962003F063FB36480022E9
:104E00004FF4005101F0AEFAB4F92C30002B00F34E
:104E1000848001233370334BA0881A68904202D9F2
:104E20001860FFF71BFD304D01243B78002B68D044
:104E30002E4B01221A7005B0BDE8F08FBAF1010ABD
:104E400009F120097FF434AF5BE7013A0AF11C0A4B
:104E50007FF461AF91E7B4F90CC02A68B4F90E0091
:104E60000CF11F0E9645A0DB1F3262459DDB00F161
:104E70001F02914299DC2133834296DBB4F92C3036
:104E8000022B8ADC01331848A38503238DF80F30E9
:104E90004A464B460DF10F01006803F018FC7CE711
:104EA0000C27002005270020042700202C000020CC
:104EB00028000020FD26002024000020282D0020AE
:104EC000102C0020F82A002010270020082700209E
:104ED00006270020302D0020001802401C00002072
:104EE0001800002000270020682300200A27002047
:104EF000FC260020BAF1010A09F11C097FF45BAF1E
:104F000082E728688DF80F401A460DF10F0103F073
:104F1000DEFB322003F0D5FA87E7154B1B78002B18
:104F20003FF4A4AE13481E210023028A013A92B234
:104F3000012A98BF0133013900F12000F5D1002B7F
:104F40007FF494AE0C490D4801220A70327002229F
:104F50008DF80F2000681A460DF10F0103F0B7FB22
:104F60003B78002B7FF464AF0A2003F0AAFAF7E73E
:104F70000C270020102700200B270020682300208A
:104F800070B5264C00254FF6CE7211462046FFF72D
:104F9000A9FB013520460321FFF7A2FB1E2D04F1DA
:104FA0002004F0D11E4E0024A5194FF6CE721146F2
:104FB0002846FFF797FB28461A4D0321FFF790FB81
:104FC00025444FF6CE7211462846FFF78BFB1C3462
:104FD00003212846FFF784FBB4F58C7FE4D1124C03
:104FE000124BE360002104F10800FFF733FC0021BD
:104FF00004F10800FFF730FC0D4A002313600D4A4E
:1050000013700D4A13700D4A13700D4A012111607F
:105010000C4A13700C4B5A221A6070BD10270020E6
:10502000102C0020F82A0020282D00206800040100
:105030003000002005270020042700200C27002036
:105040002C000020FD2600202800002038B50F4845
:105050000F4DFFF76FFB002428191C34FFF79CFA53
:10506000B4F58C7FF8D10B4D002428191C34FFF7C0
:1050700093FAB4F58C7FF8D1074D00242819203419
:10508000FFF7DAFAB4F5707FF8D138BD282D00208B
:10509000102C0020F82A002010270020164838B5D0
:1050A0001F24013CA0F1200512D114480B24013C1F
:1050B000A0F11C0514D112480B24013CA0F11C05E1
:1050C00015D0D0F8FC30FC305B6898472846F4E7F0
:1050D000D5F8C03300F568705B6898472846E0E76C
:1050E000D5F81831FC305B6898472846DFE7BDE803
:1050F00038400448FFF730BB10270020F82A002072
:10510000102C0020282D0020F02070474FF4A070B4
:1051100070472920FCF782BE2820FCF77FBE08B527
:10512000FCF750FECA20FCF779FEC320FCF75AFEBC
:105130000820FCF757FE5020FCF754FECF20FCF768
:105140006DFE0020FCF74EFEC120FCF74BFE302028
:10515000FCF748FEED20FCF761FE6420FCF742FE00
:105160000320FCF73FFE1220FCF73CFE8120FCF7F9
:1051700039FEE820FCF752FE8520FCF733FE0020C4
:10518000FCF730FE7820FCF72DFECB20FCF746FE26
:105190003920FCF727FE2C20FCF724FE0020FCF72A
:1051A00021FE3420FCF71EFE0220FCF71BFEF72038
:1051B000FCF734FE2020FCF715FEEA20FCF72EFE5B
:1051C0000020FCF70FFE0020FCF70CFEB120FCF7DE
:1051D00025FE0020FCF706FE1B20FCF703FEB62090
:1051E000FCF71CFE0A20FCF7FDFDA220FCF7FAFDEF
:1051F000C020FCF713FE1020FCF7F4FDC120FCF7E3
:105200000DFE1020FCF7EEFDC520FCF707FE452043
:10521000FCF7E8FD1520FCF7E5FDC720FCF7FEFDD7
:105220009020FCF7DFFD3620FCF7F8FDC820FCF7E6
:10523000D9FDF220FCF7F2FD0020FCF7D3FDB020F1
:10524000FCF7ECFDC220FCF7CDFDB620FCF7E6FD37
:105250000A20FCF7C7FDA720FCF7C4FD2720FCF7B8
:10526000C1FD0420FCF7BEFD2A20FCF7D7FD00207D
:10527000FCF7B8FD0020FCF7B5FD0020FCF7B2FDFF
:10528000EF20FCF7AFFD2B20FCF7C8FD0020FCF75A
:10529000A9FD0020FCF7A6FD0120FCF7A3FD3F209F
:1052A000FCF7A0FDF620FCF7B9FD0120FCF79AFD04
:1052B0000020FCF797FD0620FCF794FD2C20FCF75E
:1052C000ADFDC820FCF7F8FD2620FCF7A7FD012066
:1052D000FCF788FDE020FCF7A1FD0F20FCF782FD24
:1052E0002920FCF77FFD2420FCF77CFD0C20FCF737
:1052F00079FD0E20FCF776FD0920FCF773FD4E20AA
:10530000FCF770FD7820FCF76DFD3C20FCF76AFD92
:105310000920FCF767FD1320FCF764FD0520FCF76E
:1053200061FD1720FCF75EFD1120FCF75BFD0020FE
:10533000FCF758FDE120FCF771FD0020FCF752FD61
:105340001620FCF74FFD1B20FCF74CFD0420FCF75A
:1053500049FD1120FCF746FD0720FCF743FD3120F5
:10536000FCF740FD3320FCF73DFD4220FCF73AFD01
:105370000520FCF737FD0C20FCF734FD0A20FCF774
:1053800031FD2820FCF72EFD2F20FCF72BFD0F20F0
:10539000FCF728FD1120FCF741FDC820FCF78CFD2F
:1053A0002920FCF73BFDBDE808402C20FCF736BD6A
:1053B00008B5FCF707FD0321D320FCF74BFD80B2B5
:1053C00008BD10B5C4B2022203212046FCF7B0FC90
:1053D0000A20FCF7F5FC204600220321FCF7A8FC7C
:1053E000BDE810400220FCF7EBBC38B50446E4B23F
:1053F000FCF79CFC00212046FCF7B2FC012105468D
:105400002046FCF7ADFC40EA052080B238BD10B55F
:10541000C4B240212046FCF7A3FC030607D54C216B
:105420002046FCF79DFC003818BF012010BD01226A
:105430004B212046FCF77CFC204600224B21FCF748
:1054400077FC0020F2E773B50423C4B20E4615467C
:10545000D7210DEB03022046FCF79CFC019B1BBAF5
:105460001A0DC3F30B23328020462B8001224B21DF
:10547000FCF75EFC00224B212046FCF759FC02B0F1
:1054800070BD000010B50A4A1378984204460DD04A
:10549000517888420AD00BB141B90123D454FCF7AA
:1054A00045FC2046BDE81040FFF78BBF10BD00BF94
:1054B000582D002010B5C4B209212046FCF750FC3D
:1054C00040F00102D2B220460921BDE81040FCF7AD
:1054D0002FBC10B5C4B209212046FCF741FC0921BC
:1054E00000F0FE022046BDE81040FCF721BC38B5B4
:1054F000C4B20D4620460A21FCF732FC40EA050200
:10550000D2B220460A21BDE83840FCF711BC10B5E4
:105510000446FCF70CFC20461F21FFF7E8FF20465D
:10552000BDE81040FFF7C6BF38B5C4B20D462046EF
:105530000A21FCF715FC20EA0502D2B220460A2116
:10554000BDE83840FCF7F4BB10B50446FFF7C1FFD7
:1055500020461F21BDE81040FFF7E6BF10B5C0B2DE
:105560000C460B21FCF7FCFB204010BD1F21FFF770
:10557000F5BF0A46C0B20B21FCF7DABB1F21FFF7CB
:10558000F8BF38B5C4B20D4620461721FCF7E8FB3A
:1055900020EA0502D2B220461721BDE83840FCF7C8
:1055A000C7BB70B5C4B2064604212046FCF7D8FB41
:1055B000042100F0FB0205462046FCF7B9FB30460B
:1055C000F021FFF7DEFF05F0F80220460421FCF78A
:1055D000AFFB492220212046FCF7AAFB0220FCF762
:1055E000EFFB204601222121FCF7A2FB20469A2254
:1055F0004121FCF79DFB204601224A21FCF798FB44
:10560000204601224B21FCF793FB204600224B2130
:10561000FCF78EFB204601225621FCF789FB204631
:1056200001225821FCF784FB204601224021FCF78F
:105630007FFB2046FF220B21FCF77AFBBDE8704080
:105640000220FCF7BDBB0000054BD3F8882042F4D4
:105650007002C3F888204FF000629A60704700BF64
:1056600000ED00E008B50B4B1A6842F400721A60B6
:105670001A6842F480621A601A6842F480721A60F2
:10568000032000F061FA0020FCF7C0FEFCF722FCCA
:10569000002008BD003C0240034A044B11681B78FF
:1056A0000B441360704700BF5C2D00209800002061
:1056B000014B1868704700BF5C2D002038B50446C8
:1056C000FFF7F6FF631C1CBF054B1B78054618BF90
:1056D000E418FFF7EDFF431BA342FAD338BD00BF28
:1056E0009800002038B50446002800F09B80056C27
:1056F00025B9FCF70FFC656484F83C50236CDB068D
:1057000000F18E80236C23F4885323F0020343F0CE
:1057100002032364444B5A6822F440325A605A68A8
:1057200061680A435A60236821695A6822F48072CA
:105730005A605A6842EA01225A605A68A16822F007
:1057400040725A605A680A435A609A68E16822F4C3
:1057500000629A609A680A439A603449A26A8A424F
:1057600052D0996821F07061996099680A439A60F3
:105770009A68E16A22F040529A609A680A439A60F5
:105780009A6822F002029A609A68217E42EA4102F7
:105790009A6094F82020002A3ED05A68616A42F448
:1057A00000625A605A6822F460425A605A680139AD
:1057B00042EA41325A60DA6AE16922F47002DA623E
:1057C000DA6A013942EA0152DA629A6822F4007216
:1057D0009A609A6894F8301042EA41229A609A6876
:1057E000616922F480629A609A68002042EA81220C
:1057F0009A606064236C23F0030343F00103236485
:10580000002384F83C3038BD9A6822F070629A60B8
:105810009A6822F04052B2E75A6822F40062C9E75F
:105820000120EDE70120EEE7002301400100000F19
:1058300082B00023019390F83C30012B69D0012302
:1058400080F83C3003689A68D2070BD59A68D10774
:105850001AD4036C43F010030364436C43F0010358
:1058600043644CE09A682C4942F001029A602B4A4A
:105870001268B2FBF1F202EB42020192019A002A95
:10588000E4D0019A013AF8E7026C22F4E06222F0D7
:10589000010242F4807202645A68520541BF026CF0
:1058A00022F4405242F480520264026C12F480529C
:1058B0001CBF426C22F006024264002280F83C20A9
:1058C0006FF022021A60164A516811F01F0F154935
:1058D0001CD18B4207D001F580718B420CD15268EC
:1058E00012F01F0F0BD19A6812F0405F07D19A682F
:1058F00042F080429A6002E00B498B4202D00020C5
:1059000002B07047526812F0100FEBE78B42F6D1ED
:10591000E9E70220F4E700BF40420F0094000020B6
:1059200000230140002001400022014090F83C305B
:10593000012B14D003689A6822F001029A609B68D8
:10594000DB0707D4036C23F4885323F0010343F0EF
:1059500001030364002380F83C301846704702209E
:10596000704703689A68520570B504460D460BD51A
:105970009B68DE0508D5036C43F020030364002315
:1059800080F83C30012070BDFFF792FE0646236888
:105990001A6891070CD56FF012021A60226C42F45B
:1059A000007222649A6812F0405F17D00020EAE784
:1059B000681CEDD065B923681B6813F00203E6D1BB
:1059C000226C84F83C3042F0040222640320DAE7BF
:1059D000FFF76EFE801BA842EDD8D8E7227E002A92
:1059E000E4D1DA6A12F4700F02D09B685A05DDD454
:1059F000236C23F480732364236CDB04D6D4236CE0
:105A000043F001032364D1E70368D86C70470000BA
:105A1000F7B50023019390F83C30012B054600F0C8
:105A20008680012380F83C3008682B688E6809283E
:105A300084B233D904EB4402DF681E3A4FF0070CFE
:105A40000CFA02FC27EA0C07DF60DF6806FA02F2B4
:105A50003A43DA604968062901EB81022DD8596B77
:105A6000053A1F26964021EA06015963596B04FA4C
:105A700002F20A435A632F4A93420AD1122837D1BD
:105A80002D4B5A6822F400025A605A6842F4800290
:105A90005A60002085F83C0003B0F0BD1A6900EBA5
:105AA000400C072707FA0CF722EA07021A611A6965
:105AB00006FA0CF616431E61CCE70C294FF01F01C5
:105AC0000BD81E6B233A914026EA01011963196B2A
:105AD00004FA02F20A431A63CDE7DE6A413A9140C2
